:020000040000FA
:060000000A128A110C280F
:10000800FE00030EF1000A08F2000A128A11702994
:100018000A128A110F2883132A30FD000230FE00CD
:100028000630FF00203084000A128A11CD210A12FE
:100038008A11B201B301B401B501B601F801F901A1
:10004800FA0183010A128A11FF2883120313080890
:10005800AE002E08FA006430F3000030F4007A088D
:10006800AE00AF012E08F5002F08F6000A128A111B
:1000780096200A128A11730883120313B0003008FD
:10008800B5009C30AE002E08F30035080A128A111C
:100098008B210A128A117A0783120313AF002F08E3
:1000A800FA000A30F3000030F4007A08AE00AF011D
:1000B8002E08F5002F08F6000A128A1196200A1257
:1000C8008A11730883120313B0003008F900F63060
:1000D800AE002E08F30079080A128A118B210A1241
:1000E8008A117A0783120313AF002F08FA007A08DF
:1000F800AE002E08B6003608203E840083130008A0
:10010800AE002E08B4007908203E84000008AE0036
:100118002E08B3003508203E84000008AE002E08E3
:10012800B200080083120313AB01F41F9C289D281A
:10013800A428F309F409F30A0319F40AAB01AB0A7A
:10014800F61FA728A828B128F509F609F50A031902
:10015800F60A0130F7007708AB06AC01AD01730869
:1001680074040319B828B928F028AA01AA0AC728CC
:1001780001300310F30DF40DFF3E031DBD280130BF
:10018800F7007708AA07F41FCA28CB28BC28013033
:100198000310AC0DAD0DFF3E031DCC28740876028C
:1001A800031DD82873087502031CDB28DC28E32804
:1001B8007308F5027408031CF603F6022C140130C8
:1001C8000310F40CF30CFF3E031DE4280130AA02CF
:1001D800031DEF28F028CB282B080319F428F5284D
:1001E800FA28AC09AD09AC0A0319AD0A2D08F400C8
:1001F8002C08F30008000A128A11B5210A128A1184
:100208000A128A1110220A128A110A128A11FB2173
:100218000A128A110A128A11A0210A128A110A12D4
:100228008A11EE210A128A11831203139F140A12EB
:100238008A1129200A128A11831203139F1825296B
:1002480026291B291F0CB100310C0F39063A031D52
:100258002E292F2934291F08C33914389F0038291B
:100268001F08C33918389F000F3083120313B100D9
:10027800B10B3C293F29831203139F141B290A122F
:100288008A110C288312031385017808031D4D2950
:100298004E29572934088500063086000130F000C1
:1002A8007008F8076C297803031D5B295C2961290C
:1002B8003308850005308600522902307806031D70
:1002C800662967296C293208850003308600F80101
:1002D800FE3081000B1108000B1D73297429792940
:1002E8000A128A1146210A128A11831203130C1F5B
:1002F8007E297F2984290A128A11DC210A128A118F
:1003080072088A00710E8300FE0E7E0E0900F60048
:10031800F501761C9029912995297308F400740831
:10032800F5070310F30D0310F60C7608031D9D293D
:100338009E298D2975080800831603139F131F1221
:100348009F12831203131F139F131F08C3391438F6
:100358009F002130F300F30BAF29831203131F14FE
:100368000800831603178901603088008316031379
:1003780086018701850188010330890083120313F0
:10038800860187018501880108007E088A007F08A8
:1003980082000A128A11C9210A128A118000840A6D
:1003A80004087D0603190034FF0A0319FE0ACD2943
:1003B800831203131F0CF000700C0F39053A031D4C
:1003C800E629E729EA291E088700EC291E08880083
:1003D8000C1308008316031381128111011581146F
:1003E8000114FE308312031381000B1108008B17D0
:1003F8008B160B17831603130C17831203130C1396
:100408000B1108003F3406345B344F3466346D34C6
:100418007D3407347F346734831603130F178F1224
:060428000F120F14080082
:04400E00C430FF3F7C
:00000001FF
