:020000000029D5
:10000800A000030EA1000B1810200B192620210EAA
:100018008300A00E200E090003138312061C18206B
:10002800861C1F200B100800061C1828850A0508C6
:10003800002287000800861C1F2885030508002267
:1000480087000800F53081000B11A20A2208323C13
:10005800031D2F28A2010319A40A240800228800DE
:0200680008008E
:1002000006211A21212127212C21052903178316D4
:10021000880189010313831685018801870106146B
:100220008614811315149514031383128501870115
:1002300088010800031383160F138F160F160F146F
:10024000080003138316161496140B1008008B175E
:100250008B158B160B100800031383168112811166
:1002600001158114011403138312F53081000B1161
:02027000080084
:100400008A018A140F3982073F3406345B344F3433
:1004100066346D347D3407347F346F3477347C3404
:0804200039345E347934713483
:04400E00D430FF3F6C
:00000001FF
