:02000000C12F0E
:100F82000317831688018901031383160814881432
:100F92000815881508168701871707178716071679
:100FA200850185170517851605168601861706170A
:100FB2008616031383128701850186018818EA27A2
:100FC2000819EE270818F2278819F627081AFA27AF
:100FD200DF2F8818EA2F870A08000819EE2F8703E7
:100FE20008000818F22F850A08008819F62F8503D1
:0E0FF2000800081AFA2F0508070786000800F5
:04400E00C130FF3F7F
:00000001FF
