:020000040000FA
:060000000A128A110C280F
:10000800FE00030EF0000A08F1000A128A112429E2
:100018000A128A110F28F801F90183120313AC019F
:10002800AD01AE01AF01B001B10183010A128A111D
:10003800022983120313A101F31F232824282B2844
:10004800F209F309F20A0319F30AA101A10AF51F3B
:100058002E282F283828F409F509F40A0319F50A77
:100068000130F6007608A106A201A3017208730404
:1000780003193F2840287728A001A00A4E280130FC
:100088000310F20DF30DFF3E031D44280130F60066
:100098007608A007F31F512852284328013003107F
:1000A800A20DA30DFF3E031D532873087502031DFF
:1000B8005F2872087402031C622863286A28720881
:1000C800F4027308031CF503F5022214013003102F
:1000D800F30CF20CFF3E031D6B280130A002031D38
:1000E800762877285228210803197B287C2881281C
:1000F800A209A309A20A0319A30A2308F3002208E4
:10010800F20008006430F2000030F3008312031399
:100118002508F5002408F4000A128A111D200A1285
:100128008A11730883120313AB007208AA002B0804
:10013800F3002A08F2009C30F400FF30F5000A12A0
:100148008A11DD200A128A11831203132408720708
:10015800A40025080318250A7307A5000A30F20031
:100168000030F3002508F5002408F4000A128A116B
:100178001D200A128A11730883120313A90072083A
:10018800A8002908F3002808F200F630F400FF3030
:10019800F5000A128A11DD200A128A11831203134C
:1001A80024087207A40025080318250A7307A50068
:1001B8000800F601F701721CE228E328E928740810
:1001C800F6070318F70A7508F70701300310F40D4E
:1001D800F50DFF3E031DEA2801300310F30CF20C65
:1001E800FF3E031DF12872087304031DFC28FD2837
:1001F800DF287708F3007608F20008000A128A114F
:1002080056210A128A110A128A117E210A128A11AB
:100218000A128A118B210A128A110A128A1185215F
:100228000A128A110A128A1169210A128A110A12FB
:100238008A1186200A128A111B290A128A110C288F
:100248000B1D272928292D290A128A1176210A121D
:100258008A110B1C3029312936290A128A113D21AD
:100268000A128A1171088A00700E8300FE0E7E0E33
:100278000900831203130618422943294A29061C38
:100288004629472943290708013E870086184D2932
:100298004E295529861C512952294E290708FF3E07
:1002A8008700080083160317880189010330831625
:1002B800031386008701850181130330950083129B
:1002C8000313860187018501080083160313811231
:1002D8008111011581140110FA3083120313810072
:1002E8000B110800831203130508013E85008101E4
:1002F8000B110800831603130F138F160F160F1414
:10030800080003308316031396000B1008008B17A0
:0A0318008B168B150B100B1108005B
:04400E00F430FF3F4C
:00000001FF
