:020000040000FA
:060000000A128A110C280F
:10000800FE00030EF1000A08F2000A128A11812983
:100018000A128A110F2883133630FD000130FE00C2
:10002800E030FF002C3084000A128A11B2210A1233
:100038008A11FA0183010A128A115F2983120313B4
:100048000708BA00BB013A08F8003B08F900643019
:10005800F3000030F4007908F6007808F5000A1279
:100068008A11A1200A128A11740883120313A700A7
:100078007308A6002708F4002608F3009C30F50052
:10008800FF30F6000A128A110A210A128A1178082A
:100098007307F80079080318790A7407F9000A3019
:1000A800F3000030F4007908F6007808F5000A1229
:1000B8008A11A1200A128A11740883120313A90055
:1000C8007308A8002908F4002808F300F630F500A2
:1000D800FF30F6000A128A110A210A128A117808DA
:1000E8007307F80079080318790A7407F900790882
:1000F80083120313AB007808AA002A082C3E840058
:1001080083130008BA00BB013A08A4003B08A50005
:1001180028082C3E84000008BA00BB013A08A20057
:100128003B08A30026082C3E84000008BA00BB0147
:100138003A08A0003B08A100080083120313B70186
:10014800F41FA728A828AF28F309F409F30A03190C
:10015800F40AB701B70AF61FB228B328BC28F50974
:10016800F609F50A0319F60A0130F7007708B70609
:10017800B801B901730874040319C328C428FB28FB
:10018800B601B60AD22801300310F30DF40DFF3E74
:10019800031DC8280130F7007708B607F41FD528D3
:1001A800D628C72801300310B80DB90DFF3E031D2E
:1001B800D72874087602031DE32873087502031C08
:1001C800E628E728EE287308F5027408031CF603EE
:1001D800F602381401300310F40CF30CFF3E031D33
:1001E800EF280130B602031DFA28FB28D628370865
:1001F8000319FF2800290529B809B909B80A0319FC
:10020800B90A3908F4003808F30008008312031308
:10021800B601B701731C112912291A29750883120E
:100228000313B6070318B70A7608B7070130031097
:10023800F50DF60DFF3E031D1B2901300310F40CCC
:10024800F30CFF3E031D222973087404031D2D2996
:100258002E290E29831203133708F4003608F300F9
:1002680008008312031388017A08031D3C293D29DD
:10027800462924088800063085000130F0007008FF
:10028800FA075B297A03031D4A294B2950292208BA
:10029800880005308500412902307A06031D55295A
:1002A80056295B292008880003308500FA01FE30B2
:1002B80081000B1108000A128A119A210A128A1168
:1002C8000A128A11EA210A128A110A128A11F721DE
:1002D8000A128A110A128A11F1210A128A110A12C3
:1002E8008A11D3210A128A110A128A1122200A12AB
:1002F8008A1178290A128A110C280B1D842985294C
:100308008A290A128A1135210A128A110B1C8D2991
:100318008E2993290A128A11C1210A128A11720898
:100328008A00710E8300FE0E7E0E090083160317E5
:10033800880189010330831603138600870185012C
:100348008801811303309500831203138601870106
:10035800850108007E088A007F0882000A128A1137
:10036800AE210A128A118000840A04087D06031946
:100378000034FF0A0319FE0AB22983120313061870
:10038800C629C729CB290130F000700887078618CD
:10039800CE29CF29D129013087020B1008008316F6
:1003A800031381128111011581140114FE30831287
:1003B800031381000B1108003F3406345B344F34BB
:1003C80066346D347D3407347F3467348316031301
:1003D8000F138F160F160F1408000330831603131C
:1003E80096000B1008008B178B168B150B100B1132
:0203F8000800FB
:04400E00F430FF3F4C
:00000001FF
