:02000000002AD4
:10000800A000030EA1000B1912200C1830208C1828
:100018003620210E8300A00E200E09008801FE3034
:1000280081000B11A20A22081C202708870008005B
:10003800A701A500013C03192A202508023C031941
:100048002D202508023C0319A20108000130A70051
:1000580008000230A700080000308F008E000C1046
:10006800A40A0800031383128C10A30A23083F2054
:10007800280885000800A801A600013C031955209E
:100088002608013C03198B162608023C0319582040
:100098002608023C03198B122608023C0319A30107
:0E00A80008000130A80008000030A800080081
:100200008A010A140F3982073F3406345B344F34B5
:1002100066346D347D3407347F346F3477347C3406
:0802200039345E347934713485
:1004000019223022372241224F225E22A201A3016B
:10041000A501A701A401A801871811220718152218
:100420000C2A240E002188000800240800218800DE
:1004300008000317831688018901031383168501B9
:100440008701880186010715871507168716071784
:10045000871703138312850186018701880108002D
:10046000031383160F138F160F160F1408000313B0
:1004700083128B170B178B16031383160C148C1413
:1004800008000313831681128111011581140114D0
:10049000031383128801FE3081000B11080003133F
:1004A0008312901090121016901110141013031351
:1004B000831200308F008E000C100800031383128B
:1004C0001217921612169215121592141214031383
:0E04D00083163D309200031383128C10080037
:04400E00D430FF3F6C
:00000001FF
