:02000000002AD4
:10000800A000030EA1000B1914200C1860208C18F6
:1000180068200B188320210E8300A00E200E0900F3
:100028008801FE3081000B11FF308700B10A3108CA
:10003800013C031940203108023C031944203108CF
:10004800033C031948203108043C03194C203108AB
:10005800053C031950203108063C03195420310887
:10006800073C031958203108083C03195C20310863
:10007800083C0319B1010800290888000710080086
:100088002A088800871008002B0888000711080034
:100098002C088800871108002D088800071208001E
:1000A8002E088800871208002F0888000713080008
:1000B800300888008713080000308F008E000C106D
:1000C800A203A303A4030800031383128C1041188E
:1000D8000510421885114318861232187A284118DB
:1000E80005104218851143188612802841180514F6
:1000F80042188515431886160130B2060800031306
:100108008312061C8D20861C9220061D97200B103A
:1001180008004C1CC40A4C18C02008004C1CC4031E
:100128004C1800000800C801C901CA01CB01CC0164
:10013800CD0A4D08013C0319B6204D08023C0319AD
:10014800B8204D08033C0319BA204D08043C031994
:10015800BC204D08053C0319BE204D08053C031979
:10016800CD01080048140800491408004A14080082
:100178004B1408004C1408004508BD004608BE0092
:100188004708BF000430A200A300A400C101C201B7
:10019800C301121105108511861285100512061368
:0401A80040140800F7
:100200008A010A140F3982073F3406345B344F34B5
:1002100066346D347D3407347F346F3477347C3406
:0802200039345E347934713485
:100400008F23A923B023BC23C323D123E023A2013C
:10041000B101B301B401B801CD014014C101C20161
:10042000C3010A30BD000A30BE000A30BF004814C4
:100430000330A200A300A4000F30C400B801B4012F
:100440002208B3000A30B302031C282AB80A232A60
:10045000B3070130B302031C2F2AB40A2A2A340836
:100460000021A90038080021AA00B901B50123081C
:10047000B3000A30B302031C3F2AB90A3A2AB30771
:100480000130B302031C462AB50A412A350800216F
:10049000AB0039080021AC00BA01B6012408B30052
:1004A0000A30B302031C562ABA0A512AB307013094
:1004B000B302031C5D2AB60A582A36080021AD0093
:1004C0003A080021AE0048187622491890224A18AE
:1004D000B0224B18D0224C18F02240181A23411891
:1004E000222B42182F2B43183C2B1E2A0030A5002C
:1004F000BB01B7012508B3000A30B302031C822AEE
:10050000BB0A7D2AB3070130B302031C892AB70A4C
:10051000842A37080021AF003B080021B000080002
:10052000091109140F30A5000B234408A500C500CC
:10053000BB01B7012508B3000A30B302031CA22A8D
:10054000BB0A9D2AB3070130B302031CA92AB70ACC
:10055000A42A37080021AF003B080021B0000800A2
:10056000091089140F30A5000B234408A500C6000C
:10057000BB01B7012508B3000A30B302031CC22A2D
:10058000BB0ABD2AB3070130B302031CC92AB70A4C
:10059000C42A37080021AF003B080021B000080042
:1005A000891009150F30A5000B234408A500C700CA
:1005B000BB01B7012508B3000A30B302031CE22ACD
:1005C000BB0ADD2AB3070130B302031CE92AB70ACC
:1005D000E42A37080021AF003B080021B0000800E2
:1005E00089016330A500BB01B7012508B3000A30BB
:1005F000B302031CFD2ABB0AF82AB3070130B30279
:10060000031C042BB70AFF2A37080021AF003B0860
:100610000021B000080009304402031917231530E7
:1006200044020319142308000A30C40008001430DF
:10063000C40008008617051585160030A2020319AC
:100640008223080007302202031912150330220208
:10065000031976230030A2020319492B1E2A073002
:100660002302031912150330230203197A230030E1
:10067000A3020319582B1E2A07302402031912154E
:100680000330240203197E230030A4020319672BD0
:100690001E2A851085120515051085153F083E0791
:1006A000A2003E08A3003E08A400C10142141E2A75
:1006B000051286138516851186163F08A2003D088F
:1006C0003F07A3003F08A400C20143141E2A0613DB
:1006D00005118617861205143D08A2003D08A300E7
:1006E0003E083D07A400C30141141E2A1211051043
:1006F00085140800121185110516080012118612C2
:100700000617080005118516051486173D08A20076
:10071000A3003D083E07A400401041140800031741
:1007200083168801890103138316850187018901D6
:100730008801860106148614061581131514951474
:10074000151503138312850186018701880189012C
:100750000800031383160F138F160F160F140800CB
:10076000031383128B170B178B168B150B100313A8
:1007700083160C148C140800031383161614961495
:1007800016150B1008000313831681128111011531
:1007900081140114031383128801FE3081000B11B0
:1007A0000800031383129010901210169011101469
:1007B00010130313831200308F008E000C100800FA
:1007C0000313831212179216121692151211921415
:1007D0001214031383163D309200031383128C10FE
:0207E00008000F
:04400E00D430FF3F6C
:00000001FF
