:02000000002AD4
:10000800A000030EA1000B1810200B191820210EB8
:100018008300A00E200E090003138312061C222061
:10002800861C26200B1008008801963081000B11D1
:10003800A20A22082A20250887000800850A050840
:10004800A300080085030508A3000800A501A40073
:10005800013C031943202408023C031946202408C4
:10006800033C031949202408043C03194C202408A4
:10007800053C03194F200319A201240808001E306B
:10008800A50008001D30A50008001B30A5000800C9
:0C0098001730A50008000F30A50008007C
:100200008A010A140F3982073F3406345B344F34B5
:1002100066346D347D3407347F346F3477347C3406
:0802200039345E347934713485
:100400007922912298229E22A322A201A401A50171
:10041000A601071C1422871C1822071D1C22871DF9
:100420003B22071E5A22092A230E002188000800B9
:100430002308002188000800A801A701A601A9013E
:100440002308A9006430A902031C282AA60A232A2B
:10045000A9070A30A902031C2F2AA70A2A2AA907DA
:100460000130A902031C362AA80A312A26080F39AE
:10047000002188000800A801A701A601A9012308FE
:10048000A9006430A902031C472AA60A422AA90728
:100490000A30A902031C4E2AA70A492AA9070130DB
:1004A000A902031C552AA80A502A27080F3900213F
:1004B00088000800A801A701A601A9012308A90036
:1004C0006430A902031C662AA60A612AA9070A3019
:1004D000A902031C6D2AA70A682AA9070130A902EC
:1004E000031C742AA80A6F2A28080F3900218800E3
:1004F00008000317831688018901031383168501F9
:100500008801870186010614861487170717871646
:100510008113151495140313831285018701880133
:100520000800031383160F138F160F160F140800FD
:1005300003138316161496140B1008008B178B15D3
:100540008B160B10080003138316811281110115FD
:1005500081140114031383128801963081000B115A
:02056000080091
:04400E00D430FF3F6C
:00000001FF
