:020000040000FA
:060000000A128A110E280D
:10000800FE00030EF3000408F4000A08F5000A12C3
:100018008A1151280A128A1111288317F030FD001D
:100028000130FE002030FF00903084000A128A114F
:100038001C220A128A1183135330FD000130FE007E
:100048008030FF00203084000A128A111C220A1214
:100058008A110A128A112B220A128A11F7000A122F
:100068008A112C220A128A11F8000A128A112D22EA
:100078000A128A11F9000A128A112E220A128A110A
:10008800FA000A128A112F220A128A11FB00FC01B7
:10009800FD0183010A128A11E629831203138C1EBB
:1000A8005628572817290C30990033301A06031D93
:1000B8005E285F289E2871287708FF3EF0007008A8
:1000C800F7007708353E8400831300088312031372
:1000D80099005330F000F00B6F287708031D75283E
:1000E800762860280D30831203139900FC01FC0A5E
:1000F80095283330831203131A0603198428852898
:1001080095281A0886000230F200E730F100003026
:10011800F000F00B8D28F10B8D28F20B8D280000D4
:10012800FC017C03031999289A287D280F30F000D8
:100138007008F7003230831203131A06031DA5282E
:10014800A628E528B8287808FF3EF0007008F800CF
:100158007808443E8400831300088312031399002F
:100168005330F000F00BB6287808031DBC28BD28D2
:10017800A7280D30831203139900FD01FD0ADC281E
:100188003230831203131A060319CB28CC28DC2833
:100198001A0885000230F200E730F1000030F00064
:1001A800F00BD428F10BD428F20BD4280000FD0161
:1001B8007D030319E028E128C4280F30F0007008F7
:1001C800F8003130831203131A06031DEC28ED28BA
:1001D8001529FF287908FF3EF0007008F900790812
:1001E800203E8400831300088312031399005330C0
:1001F800F000F00BFD287908031D03290429EE28D7
:100208000430F200CF30F1000130F000F00B0A2981
:10021800F10B0A29F20B0A2911291530F000700890
:10022800F900FB01FB0A75088A0074088400730E44
:100238008300FE0E7E0E09004234543452344F348B
:100248005034203472346134693462346D3461342A
:10025800433420342934333428340D34413454346D
:1002680052344F3450342034723461346934623437
:100278006D346134433420342934323428340D3415
:10028800733465347234653474346334613472346D
:1002980061346334203465346434203461346E341A
:1002A80065346434613463342034723461346734BF
:1002B80065346C34703473346534443420342934F0
:1002C800313428340D347234613474347534633401
:1002D80065346A3465342034613465347334653484
:1002E800643420346E346F34693463346334613475
:1002F80020346534753451344434583420346F34E0
:1003080064346E3475346D34203461346C346F3435
:1003180048340D343A3461346E34653464346134AD
:1003280043343A346F347634653475346E3420345B
:1003380072346534743463346134723461344334F0
:100348003A346F347634653475346E34203472340C
:1003580065347434633461347234613443348316DD
:100368000317890188018316031385018312031378
:1003780085018316031388018312031388018316EA
:1003880003138601831203138601831603130F08D0
:100398008F3940388F000F14181218158316031759
:1003A800871519308316031399009A0183120313D2
:1003B8009817181318168316031398168B170B170C
:1003C8008C1608000A128A11B3210A128A118312A4
:1003D80003130C1EF029F129EB297B03031DF529D2
:1003E800F629EB290C3099000A2A7A08FF3EF60014
:1003F8007608FA007A08903E840083170008831272
:10040800031399005330F600F60B082A7A08031DE7
:100418000E2A0F2AF9296030F6007608FA00FB0147
:10042800EB290A128A110E287E088A007F088200AA
:100438000A128A1118220A128A118000840A0408F2
:100448007D0603190034FF0A0319FE0A1C2A0F341B
:080458000F3415346034013447
:04400E00C438FF3F74
:00000001FF
