:020000040000FA
:060000000A128A110C280F
:10000800FE00030EF1000A08F2000A128A1189287C
:100018000A128A110F2883010A128A1113280A1258
:100028008A11AD200A128A110A128A11C4200A12F2
:100038008A110A128A1176200A128A110A128A1162
:100048004E200A128A110A128A11BB200A128A113A
:10005800831203139F149F18322833282F281F0C4C
:10006800F400740C0F39013A031D3B283C283F2843
:10007800C3309F0543281F08C33904389F00213027
:10008800F400F40B4528831203139F142F280A1237
:100098008A110C288316031387140715F930920068
:1000A8003F308312031397051708F0390C3897006F
:1000B8001D08F0390C389D000F3095000F309B005B
:1000C800CF3097051D129D128C1003309204121523
:1000D8008C1C6F2870286C288C108316031307114A
:1000E80087100800831603139F131F129F12831291
:1000F80003131F139F17C3309F052130F300F30B21
:100108008328831203131F140800831203130C1F80
:100118008E288F2894280A128A119B200A128A1185
:1001280072088A00710E8300FE0E7E0E090083128B
:1001380003131F0CF000700C0F39003A031DA5289B
:10014800A628A9281E089500AB281E089B000C139A
:1001580008008316031789010330880083160313E8
:1001680086018701FF3085008801890108008B1707
:100178000B17831603130C17831203130C130800B1
:0E018800831603130F178F160F160F1408009F
:04400E00C438FF3F74
:00000001FF
