:10000000012814221B22352203138312A00A0B207D
:100010000B1940220628881A1120081B18201F20BF
:100020000800881A1128860A06080022870008009E
:10003000081B182886030608002287000800060807
:100040000802031905140319A001031988010319F3
:040050004022080042
:100400008A018A140F3982073F3406345B344F3433
:1004100066346D347D3407347F346F3477347C3404
:1004200039345E3479347134031383160F138F1605
:100430000F160F1408000317831688018901031390
:100440008316850188018817081788160816870102
:100450008601861706178616061603138312850172
:10046000860187018801A001080003138316811209
:100470008111011581140114031383124022080015
:0E048000880A003081000B11201805100800BA
:04400E00C430FF3F7C
:00000001FF
